:020000040800F2
:10000000780400204501000813100008B50E000810
:1000100011100008B10100083514000800000000AC
:100020000000000000000000000000007110000847
:10003000B30100080000000035100008751000082A
:100040005F0100085F0100085F0100085F01000810
:100050005F010008371000085F0100085F01000819
:100060005F0100085F0100085F0100085F010008F0
:100070005F0100085F0100085F0100085F010008E0
:100080005F0100085F0100085F0100085F010008D0
:100090005F0100085F0100085F0100085F010008C0
:1000A0005F0100085F0100085F0100085F010008B0
:1000B0005F0100085F0100085F0100085F010008A0
:1000C0005F0100085F0100085F0100085F01000890
:1000D0005F010008291400085F0100085F010008A3
:1000E0005F0100085F0100085F0100085F01000870
:1000F0005F0100085F0100085F0100085F01000860
:100100005F0100085F0100085F0100085F0100084F
:100110005F0100085F0100085F0100085F0100083F
:100120005F0100085F0100085F0100085F0100082F
:10013000DFF80CD000F02AF800480047DD16000870
:10014000780400200648804706480047FEE7FEE79F
:10015000FEE7FEE7FEE7FEE7FEE7FEE7FEE7FEE777
:10016000E510000831010008D2B201E000F8012BCF
:10017000491EFBD270470022F6E710B513460A4627
:1001800004461946FFF7F0FF204610BD064C074D08
:1001900006E0E06840F0010394E807009847103457
:1001A000AC42F6D3FFF7C8FF94180008B418000853
:1001B000FEE77047704700002DE9F05F90F82110CE
:1001C0000024022903D004218163012485E0016811
:1001D0000A6822F00E020A6001680A6822F0010231
:1001E0000A603F4E3E4FB215DFF8F4C0DFF8F090E2
:1001F000DFF8ECA0DFF8E8B0DFF8E4E00168783F72
:1002000013011502ACF1640CA9F15009AAF13C0AE2
:10021000ABF1280BAEF1140E4FF48018B14227D980
:10022000B9420ED0614512D049451DD0514518D074
:10023000594518D0714501D1424615E0294EB142C9
:1002400001D1012210E0274E1436B14201D1102213
:100250000AE0244E2836B14206D0224A3C3291426E
:1002600001D11A4600E02A461E49091F0A602BE008
:10027000B94213D0614517D0494522D051451DD010
:1002800059451DD0714501D142461AE0B14202D113
:100290004FF0807215E0134EB14201D1012210E0FF
:1002A000104E1436B14201D110220AE00D4E28360C
:1002B000B14206D00B4A3C32914201D11A4600E0CD
:1002C0002A46074980394A60012180F8211000211F
:1002D00080F82010416B01B188472046BDE8F09FAF
:1002E000800002400804024070B5044600F010F996
:1002F0000546601C02D004480078044400F008F968
:10030000401BA042FAD370BD140000202DE9F84F25
:10031000DFF8B8A100220AF1040B144601274FF0C0
:100320000F090BF1040E00BF0B6807FA04F52B4010
:10033000AB4274D1DFF898C14E68A6EB0C08664555
:100340002BD00DDC032E34D005DC36B3012E19D0B2
:10035000022E2FD11BE0112E16D0122E2AD119E019
:10036000B8F5881F19D006DCB8F5803F15D0B8F570
:10037000801F1FD111E0B8F5001F0ED0B8F5041F83
:1003800018D10AE0CA6815E0CA68121D12E0CA68EE
:1003900008320FE0CA680C320CE08A682AB1012AE0
:1003A0004FF0080203D0456104E0042202E0056139
:1003B00000E00022FF2B01D8064601E000F1040610
:1003C0004FEA840501D9A5F12005D6F800C009FA45
:1003D00005F82CEA080C02FA05F54CEA050CC6F8FB
:1003E00000C04D68ED006AD53A4DAE6946F0010691
:1003F000AE61AD6924F0030605F001050095364DA8
:1004000006EB050CDCF80850A6074FEA167809FA47
:1004100008F6B543314EB04202D100261AE04EE054
:100420002F4EB04201D1012614E02E4EB04201D130
:1004300002260FE02C4EB04201D103260AE02B4EDB
:10044000B04201D1042605E0294EB04201D1052673
:1004500000E0062606FA08F62E43CCF808604D6840
:10046000DAF80060ED03554601D51E4300E09E43D7
:100470002E604D68AD0305D5DBF800601E43CBF858
:10048000006004E0DBF800509D43CBF800504D685D
:10049000DEF80060ED02754601D51E4300E09E4384
:1004A0002E604D68AD0205D5084D0C352E681E43F3
:1004B0002E6004E0054E0C3635689D433560641CA3
:1004C000102CFFF431AFBDE8F88F000000040140AC
:1004D000000011100010024000000140000801401F
:1004E000000C0140001001400014014000180140C0
:1004F000001C01408068084000D001207047C2689D
:100500004A40C26070470AB1016170470904FBE7C5
:10051000014880687047000014000020024881688C
:10052000027811448160704714000020074810B51C
:10053000016841F010010160032000F073F8002011
:1005400000F006F800F024F8002010BD0020024062
:1005500070B50D4D04464FF47A712878B1FBF0F078
:100560000A490968B1FBF0F000F0FCFA48B9102C18
:1005700007D200222146501E00F034F800206C60A3
:1005800070BD012070BD000014000020200000207C
:100590000C4808B5816941F001018161816901F070
:1005A00001010091C16941F08051C161C06900F051
:1005B000805000900448416821F0E06141F00071F2
:1005C000416008BD001002400000014000F01F0221
:1005D000012191404009800000F1E020C0F80011A5
:1005E00070470000F0B40E4B1B680C46C3F30223A7
:1005F000C3F10705042D00D90425191D072901D2CF
:10060000002300E0DB1E012606FA05F1491E214009
:1006100099409E40761E16403143F0BC00F0FABC73
:100620000CED00E0064900F0070208684FF6FF03F2
:10063000184040EA0220034A104308607047000057
:100640000CED00E00000FA052DE9F047DFF85481D9
:1006500005460E46D8F8000000F00700B0420CD264
:10066000D8F8001021F007013143C8F80010D8F87D
:10067000000000F00700B0426FD128684A4C8107A3
:1006800012D5400703D5606840F4E06060602878C8
:10069000000703D5606840F4605060606068A96836
:1006A00020F0F000084360602878C00744D06868F4
:1006B000012816D02168022816D0890700294CDAB3
:1006C000616821F0030101436160FFF721FF696860
:1006D000074641F2883001290ED00229814618D000
:1006E00026E021688903E9E78901E7E7FFF710FFC2
:1006F000C11B494501D918E081466068C0F38100FB
:100700000128F3D118E000BFFFF702FFC11B4945E4
:100710000BD86068C0F381000228F5D10CE000BF5F
:10072000FFF7F6FEC11B494502D90320BDE8F0875B
:10073000606810F00C0FF3D1D8F80010404601F0BB
:100740000701B1420BD9016821F007013143016073
:10075000006800F00700B04201D00120E6E72878E9
:10076000400705D56068E96820F4E06008436060F0
:100770002878000706D56068296920F4605040EAAF
:10078000C100606000F036F86168084AC1F30311E7
:10079000515CC840064908600020FFF7D9FE0020E0
:1007A000C4E7000000200240001002407C1800084E
:1007B000200000200448054900684968044AC1F344
:1007C0000221515CC8407047200000200010024008
:1007D0008C1800080448054900684968044AC1F3B8
:1007E000C221515CC8407047200000200010024028
:1007F0008C18000812A185B00FC98DE80F0014A055
:10080000144A006804905168134801F00C03042B4B
:1008100010D0082B0ED1C1F38343C9031DF8030088
:100820000AD5516804AAC1F34041515C0A4A5043B9
:10083000B0FBF1F005B0704708494843FAE7000003
:1008400002030405060708090A0B0C0D0E0F101011
:10085000010200000010024000127A0000093D0071
:100860002DE9F84F04460078B94DC00748D06868B4
:10087000C0F38100012807D06868C0F38100022816
:1008800009D16868C00306D52868800338D5606838
:1008900000286FD034E06068B0F5803F0BD010B115
:1008A000B0F5A02F11D0286820F480302860286887
:1008B00020F4802002E0286840F4803028606068DE
:1008C00088B1FFF725FE064609E0286840F480203D
:1008D0002860F0E7FFF71CFE801B642875D82868A5
:1008E0008003F7D50CE0FFF713FE064605E000BFD6
:1008F000FFF70EFE801B6428F0D828688003F7D429
:100900002078944E80074FF001094FF000083BD546
:10091000686810F00C0F07D06868C0F381000228E7
:1009200009D16868C00306D42868800714D52069F7
:1009300001281FD110E02069B0B1C6F80090FFF780
:10094000E7FD074605E000BFFFF7E2FDC01B0228F8
:10095000C4D828688007F7D52868616920F0F800B6
:1009600040EAC10028600FE0C6F80080FFF7D0FD24
:10097000074606E0E9E000BFFFF7CAFDC01B0228FA
:1009800023D828688007F7D4207800072CD5724830
:10099000A169D9B1C0F80090FFF7BAFD074604E09D
:1009A000FFF7B6FDC01B02280FD8686A8007F7D58D
:1009B0006A484FF4FA510068B0FBF1F0009000BFB4
:1009C0000098411E0091FAD20EE080E0C0F800804D
:1009D000FFF79EFD074604E0FFF79AFDC01B0228C3
:1009E00075D8686A8007F7D42078400760D5E86931
:1009F0000027C00008D4E86940F08050E861E86949
:100A0000012700F08050009055480168C90513D4B3
:100A10000168834641F480710160FFF779FD8246E9
:100A200006E000BFFFF774FDA0EB0A0064284ED873
:100A3000DBF80000C005F5D5E06801280AD008B150
:100A4000052813D0286A20F001002862286A20F0C7
:100A5000040002E0286A40F001002862E06841F2E8
:100A6000883B98B1FFF754FD82460BE0286A40F0BE
:100A700004002862EEE700BFFFF74AFDA0EB0A0181
:100A800059455AD8286A8007F6D50CE0FFF740FD93
:100A9000824605E0FFF73CFDA0EB0A0159454CD822
:100AA000286A8007F6D41FB1E86920F08050E86119
:100AB000E06988B36968C1F38101022945D0022841
:100AC000C6F8608004D0FFF723FD044638E034E028
:100AD000FFF71EFD074604E0FFF71AFDC01B0228C2
:100AE0002BD828688001F7D4206AB0F5803F05D163
:100AF0006868A16820F4003008436860D4E9080100
:100B00000843696821F4741108436860C6F860906E
:100B1000FFF7FEFC044606E015E000BFFFF7F8FC17
:100B2000001B022809D828688001F7D50BE000BF18
:100B3000FFF7EEFC001B022802D90320BDE8F88F66
:100B400028688001F4D40020F8E70120F6E70000CF
:100B50000010024000004242800442422000002077
:100B60000070004010B5401EB0F1807F01D301201D
:100B700010BD4FF0E02460610F21601700F04AFAC9
:100B80000020A06107202061002010BD70470000F8
:100B900070B5026804461068D168536910F00F0FF1
:100BA00050D003F0010501F4907635435DD0C207C3
:100BB00005D0CA0503D5E26B42F00102E2634207A9
:100BC00005D5DA0703D0E26B42F00202E263820746
:100BD00005D5DA0703D0E26B42F00402E2630207B4
:100BE00005D5DA0703D0E26B42F00802E263E26B5C
:100BF000002A33D0800604D5880602D5204600F0AE
:100C0000ABFA20684069E16BC0F38010090700D49B
:100C100028B3204600F092FA2068416949061AD5A7
:100C2000416921F040014161606BA0B11B49416302
:100C3000606BFFF7C1FA002810D0606B416BBDE814
:100C400070400847830610D58B060ED52046BDE8B8
:100C5000704000F081BA2046FFF798FF70BD204633
:100C6000FFF794FF0020E06370BD030606D50B0676
:100C700004D52046BDE8704000F072BB4006F3D5B5
:100C80004806F1D5D168204621F04001D1602021ED
:100C900084F8391000F00DF970BD00002D11000826
:100CA00070B5040004D094F83900002510B106E0B6
:100CB000012070BD84F83850204600F023F824202D
:100CC00084F839002068C16821F40051C1602046D1
:100CD00000F08EFA2068016921F4904101612068DA
:100CE000416921F02A0141612068C16841F4005145
:100CF000C160E563202084F8390084F83A000020C0
:100D000070BD000030B585B00024009401940294B9
:100D1000039400681449884224D11448816941F43D
:100D200080418161816901F480410491816941F0D0
:100D30000401816180690E4D00F0040004904FF4BD
:100D4000007000900220019003200390694628461D
:100D5000FFF7DCFA2815CDE900046946284602941D
:100D6000FFF7D4FA05B030BD003801400010024052
:100D70000008014090F83A30202B22D1F9B1F2B1AD
:100D800090F83830012B1CD081628285C285002109
:100D9000C163222280F83A2080F838100168CA68BE
:100DA00042F48072CA6001684A6942F001024A61F5
:100DB0000068C16841F02001C16000207047012037
:100DC000704702207047000010B5094900680968A3
:100DD00088420CD10F2301220649054800F00CF887
:100DE000BDE81040012203490148FFF7C3BF10BD11
:100DF000340000200A0000202DE9F843044690F852
:100E000039001F4616460D46202850D1A5B19EB187
:100E100094F8380001284AD0012084F838004FF0B7
:100E20000008C4F83C80212084F83900FFF770FBEB
:100E3000A6848146E68426E00120BDE8F883E08CA4
:100E4000401EE084A0684B46B0F5805F4FF0000282
:100E50004FF080012046009703D000F0B2FAE8B9C5
:100E60000DE000F0AEFAC8B928882168C0F3080088
:100E70004860206908B16D1C05E0AD1C03E02168E5
:100E800015F8010B4860E08C0028D8D14B460022B1
:100E900040212046009700F094FA08B10320CCE7E7
:100EA000202084F8390084F838800020C5E702202B
:100EB000C3E77047FEE700007FB5044600200290BC
:100EC00008200090012001900320094D03906946FD
:100ED0002846FFF71BFA012C07D0002C04D1002272
:100EE00008212846FFF70FFB7FBD0122F8E700002D
:100EF000001001401FB500200190029003900820CF
:100F0000054C009069462046FFF700FA082120466C
:100F1000FFF7F0FA04B010BD001001402DE9F043D6
:100F200085B00024294800940194029403948169B7
:100F300041F010018161816901F010010491816922
:100F400041F020018161816901F0200104918169F2
:100F500041F0040181618069DFF8748000F00400D1
:100F60000490002242F202014046FFF7CCFADFF87B
:100F70006490002202214846FFF7C5FA01254FF48C
:100F80000050CDE9000569464046CDE90245FFF72E
:100F9000BDF90226032703970096CDE9015469465F
:100FA0004046FFF7B3F90820CDE900046946404602
:100FB0000294FFF7ABF903970096CDE90154694617
:100FC0004846FFF7A3F905B0BDE8F08300100240E2
:100FD00000100140000801400C4810B50A490160AA
:100FE0004FF4E1314160002181600C22C160C0E911
:100FF00004128161C161FFF753FE002803D0BDE8F0
:101000001040FFF7D7B810BD003801403400002071
:10101000FEE770470907090E002806DA00F00F0006
:1010200000F1E02080F8141D704700F1E02080F806
:101030000014704770477047044B08B1012200E06C
:10104000002202211846FFF75EBA000000080140A6
:10105000064B012806D0002806D10022022118469E
:10106000FFF751BA0122F9E7704700000010014074
:101070007047000010B5084C2088411C21803228A0
:1010800006D14FF400510548FFF739FA00202080BF
:10109000BDE81040FFF742BA1000002000100140E8
:1010A00010B590B028216846FFF765F814210AA80A
:1010B000FFF761F802200090012004901020002426
:1010C000059007946846FFF7CBFB0F20CDE90A0493
:1010D0000C940D9400210AA80E94FFF7B5FA10B0F5
:1010E00010BD00000D48016841F001010160416838
:1010F0000B4A1140416001680A4A114001600168D1
:1011000021F480210160416821F4FE0141604FF427
:101110001F0181600449C00308607047001002404D
:101120000000FFF8FFFFF6FE08ED00E010B5406A92
:101130000021C185C184FFF729FD10BD0168CA687F
:1011400022F49072CA6001684A6922F001024A6181
:10115000202180F83A10704710B590F83A102229F3
:1011600001D0022010BD8168B1F5805F11D0016906
:10117000002901681FD0496801F07F03816A4A1C79
:1011800082620B70C18D491E0904090CC18518D0FB
:101190002BE00269816A002A0268526805D0D2B247
:1011A0000A80816A491C8162ECE7C2F308020A8066
:1011B000816A891CF7E74A68816A4B1C83620A705E
:1011C000E0E70168CA6822F02002CA600168CA68C4
:1011D00022F48072CA6001684A6922F001024A6101
:1011E000202180F83A10FFF7EFFD002010BD00002D
:1011F0002DE9F041044600680169E26821F440519C
:10120000114301612169A0680843616908432168AD
:10121000CA6841F20C639A430243CA60206841697C
:10122000A26921F44071114341614C492068642551
:10123000322688423CD1FFF7CDFA00EBC00101EB2A
:10124000001061688900B0FBF1F7FFF7C3FA00EB0B
:10125000C00101EB00106168B0468900B0FBF1F0FD
:10126000B0FBF5F06FF01801484307EB800106EB87
:101270000110B0FBF5F000F0F006FFF7ABFA00EB61
:10128000C00101EB001061688900B0FBF1F0B0FB18
:10129000F5F006EB0016FFF79DFA00EBC00101EB3D
:1012A000001061688900B0FBF1F7FFF793FA3BE0AB
:1012B000FFF780FA00EBC00101EB001061688900C4
:1012C000B0FBF1F7FFF776FA00EBC00101EB00107D
:1012D0006168B0468900B0FBF1F0B0FBF5F06FF04B
:1012E0001801484307EB800106EB0110B0FBF5F055
:1012F00000F0F006FFF75EFA00EBC00101EB001012
:1013000061688900B0FBF1F0B0FBF5F006EB001668
:10131000FFF750FA00EBC00101EB00106168890093
:10132000B0FBF1F7FFF746FA00EBC00101EB00104C
:1013300061688900B0FBF1F0B0FBF5F06FF01801C7
:10134000484307EB800108EB0110B0FBF5F0216882
:1013500000F00F0030448860BDE8F08100380140A3
:1013600090F83910212901D0022070478168B1F529
:10137000805F016A0BD04A1C0262026809785160E2
:10138000C18C491E0904090CC1840ED017E00988DC
:101390000268C1F30801516001690029016A02D0A5
:1013A000491C0162ECE7891CFBE70168CA6822F06E
:1013B0008002CA600068C16841F04001C16000203D
:1013C00070472DE9F041984617460E460446069DA3
:1013D0001DE0681C1BD02DB1FFF79AF8A0EB0800A8
:1013E000A84214D92068C16821F4D071C160206876
:1013F000416921F001014161202084F8390084F81D
:101400003A00002084F838000320BDE8F08120680D
:10141000006836EA000004D00020B842D9D000208D
:10142000F3E70120F9E700000148FFF7B1BB000036
:1014300034000020FEE700000FB4054B10B503A9EF
:10144000044A029800F017F810BC5DF814FB000085
:10145000C51600080C00002002E008C8121F08C1D1
:10146000002AFAD170477047002001E001C1121F25
:10147000002AFBD170472DE9F84F994692468846DD
:101480000546002706E025280AD051464A469047DF
:101490006D1C7F1C28780028F5D13846BDE8F88FF0
:1014A000002315F8011F18462E2915D115F8011F24
:1014B00004232A290DD06FF02F022978A1F13004DE
:1014C000092C09D800EB800002EB400008446D1C99
:1014D000F3E758F8040B6D1C2A78002ADDD0632A44
:1014E00007D0732A0FD0104651464A4690477F1CBA
:1014F0002AE018F8042B8DF8002000218DF8011047
:101500006E46012103E058F8046B4FF0FF315A0793
:101510004FF0000401D409E0641C84420BDA8C42D1
:10152000FADB325D002AF7D105E0641C8C42FCDB5B
:10153000305D0028F9D1274404E016F8010B51462C
:101540004A469047641EF8D26D1CA3E710B50020F0
:10155000FFF772FDBDE810400020FFF779BD70B5C0
:1015600004460120FFF768FD44F001050024E80768
:1015700000D00120FFF7A0FC0120FFF769FD00204B
:10158000FFF766FD641C6D08E4B2082CEFD300245D
:101590007508FFF7AFFC10B145F0800601E005F0DB
:1015A0007F060120FFF754FD0020FFF751FD641C6A
:1015B000E4B2082CECD30020FFF73EFD304670BDAE
:1015C00010B58C20FFF7CBFF0E4C60708820FFF722
:1015D000C6FFA0708620FFF7C2FFE0708420FFF7EF
:1015E000BEFF20718220FFF7BAFF60718020FFF7F5
:1015F000B6FF00F07F00A0718A20FFF7B0FFE07116
:1016000010BD00000000002070B504460D4601200A
:10161000FFF712FD04F0FE060024F00700D00120C1
:10162000FFF74AFC0120FFF713FD0020FFF710FD34
:10163000641C7608E4B2082CEFD30024E80700D03D
:101640000120FFF739FC0120FFF702FD0020FFF722
:10165000FFFC641C6D08E4B2082CEFD3BDE87040B9
:101660000020FFF7E9BC000010B500218E20FFF735
:10167000CBFF80210846FFF7C7FF114C8C20617813
:10168000FFF7C2FFA1788820FFF7BEFFE178862030
:10169000FFF7BAFF21798420FFF7B6FF6179822036
:1016A000FFF7B2FFA1798020FFF7AEFFE1798A2032
:1016B000FFF7AAFF8021BDE810408E20FFF7A4BFEE
:1016C0000000002004490A685206FCD5024AC1B253
:1016D000121D11607047000000380140FEF726FF20
:1016E000FFF7DEFCFFF71AFCFFF776FC002211463D
:1016F0002520FEF777FF2520FEF768FF0022114620
:101700000520FEF76FFF0520FEF760FF012250491C
:101710005048FFF72FFB3220FEF7E6FDFFF716FFDC
:101720003220FEF7E1FDFFF79FFF4B4D4B4C4C4E37
:101730004FF4FA77FFF744FF28780109217000F091
:101740000F00607068780209A27000F00F00E0706E
:10175000A8780209227100F00F006071E878020990
:10176000A27100F00F00E07128790209227200F0E6
:101770000F00607268790209A27200F00F00E07237
:10178000A8790209227300F00F006073327890424A
:101790005AD0344B002230311A70307032A0FFF72B
:1017A0004BFE617830A03031FFF746FEA1782EA0C5
:1017B0003031FFF741FEE1782BA03031FFF73CFEDE
:1017C0002AA0FFF739FE217927A03031FFF734FE38
:1017D000617925A03031FFF72FFE24A0FFF72CFE02
:1017E000A17921A03031FFF727FEE1791EA0303129
:1017F000FFF722FE1EA0FFF71FFE217A1AA030314C
:10180000FFF71AFE617A18A03031FFF715FE19A014
:10181000FFF712FEA17A14A03031FFF70DFEE17A36
:1018200011A03031FFF708FE12A0FFF705FE217B63
:101830000DA03031FFF700FE617B0BA03031FFF7C8
:10184000FBFD0DA0FFF7F8FD3846FEF74DFD71E7F3
:101850000A000020340000200000002024000020A6
:101860000800002009000020256300002D00000072
:10187000200000003A0000000D0A000000000000F7
:101880000000000001020304060708090000000030
:1018900001020304B4180008000000202400000026
:1018A00058140008D8180008240000205404000030
:1018B000681400082008100423595002000000009A
:1018C0000000000000000000010000001000000007
:0818D0000000000000A24A0420
:0400000508000131BD
:00000001FF
